:1000000002308A006C2A00000A108A100A11820746
:1000100028340C34013406340C224310CD27D42765
:100020005210CB274E294F2655000A32E933693A40
:100030006136BD1275002130840083130008031956
:100040002E280630F800F701F70B2428F80B232898
:100050007B30F700F70B2A28800B21280800273077
:10006000840083130008031942280630F800F701C2
:10007000F70B3828F80B37287B30F700F70B3E28B2
:10008000800B352808002E18472808124828081623
:10009000831608128312AE184F288812502888162B
:1000A0008316881283122E19572808135828081708
:1000B000831608138312AE195F28881360288817E7
:1000C0008316881300008312081483160810023068
:1000D000F700F70B69286C280000831208108316BC
:1000E000081083120800AF0183160816003083122F
:1000F000081A0130AF048316881600308312881A5C
:100100000130F7000310F70D7708AF0483160817C6
:1001100000308312081B0130F700F70DF70DFC309B
:10012000F7057708AF048316881700308312881B01
:100130000130F700F70DF70DF70DF830F7057708E8
:10014000AF042F08F8000800831608108810081163
:1001500083128810831688100816881608178817C7
:1001600083120815831608110000831208148316E1
:1001700008100000831273207808AE000810831660
:10018000081000008312081483160810C728C82816
:100190000000831273207808AD0008108316081041
:1001A000081288120813881383122E0EF700F030FD
:1001B000F70577082D04F8007808AD00AD1FE22898
:1001C0008316AC28AB08031DE7288810E82888149C
:1001D000831688100000831208118316081100008E
:1001E000831208108316081083122C0EAD000F30F6
:1001F000AD052D08AE0043202C080F39AD00AE0030
:100200004320080083160812881208138813081068
:100210008810081183128810831688108312081121
:100220008316081183120810831608100F308312EA
:10023000A7002F200130A1002108033C031C28291E
:100240000330AE0043200530A7002F20A10A1C294F
:100250000230AE0043200530A7002F20A101210865
:10026000033C031C3C2921080420A200AB01220806
:10027000AC00A420A10A2F298A110A12A42A280B53
:10028000422945294030A9004629A9010130270209
:10029000A90729088038AA00AB012A08AC00A420CD
:1002A00008002608073A03195F290B3A0319642945
:1002B000063A03196C29023A031972297729013089
:1002C000A700A8003F217C29AB010130AC00A4208D
:1002D0000230A7002F207C290130A7000230A8009F
:1002E0003F217C29AB011030AC00A4207C290130D7
:1002F000AB002608AC00A42008000B08A1008B135B
:10030000831603178C170C140000000083120C08CE
:100310007F390319C4290313A20003170D0803131F
:10032000A30003170F080313A4002208A6005121FD
:10033000230803178D000313240803178F00831667
:100340008C170C140000000083120C0D0E0D7F3969
:100350000319C4290313A20003170D080313A300F4
:1003600003170F080313A4002208A6005121230835
:1003700003178D000313240803178F008D0A031938
:100380008F0A0313802903170313A11B8B178A11EC
:100390000A12AC2A0B08A2008B13831603178C17C2
:1003A0000C14000000000318FC2983120C087F398C
:1003B0000313A30003170D080313A40003170F086A
:1003C0000313A5002308A6005121240803178D005C
:1003D0000313250803178F0083168C170C140000D5
:1003E000000083120313A10BF629F92983160317C2
:1003F000FC291B2A8316031783120C0D0E0D7F395F
:100400000313A30003170D080313A40003170F0819
:100410000313A5002308A6005121240803178D000B
:100420000313250803178F008D0A03198F0A031081
:100430000313A10BCD29A21B8B178A110A12EF2AD5
:100440002408F80123020318282A2308F700342A75
:10045000F7010830A500A30DF70D24087702031853
:10046000F700F80DA50B2B2A080078082108A30037
:100470006430A40020227708A10078083030031DE2
:10048000482AA21C4F2AA2194F2A221A20304B2A8E
:10049000A21122122214F8077808A600512121087F
:1004A000A3000A30A40020227708A1007808303089
:1004B000031D602AA219642A221C642A221A2030F1
:1004C000F8077808A60051213030A1072108A600BE
:1004D00051218A110A12F42A83161F149F141F1522
:1004E0009F1107309C0083131F3083058312860100
:1004F0000730831686008312870100308316870039
:10050000880183128801831688001F1783121F1722
:100510009F1383169F1783121F1483161F109F1497
:100520001F159F15F80083121F08C73978049F0014
:100530000030F80006389200FF30831692006430D5
:100540008312A1001B20022986170C3003178D008F
:1005500000308F0003137D291F151F19AD2A831644
:100560001E088312A000861DB72A20089500061ECB
:10057000BB2A20089B000A30A1001B200618CE2AA7
:100580008619CE2A8601F03097059D0587016430D3
:10059000A1001B2007110C30970086158618DE2A53
:1005A000061ADE2A8601F03097059D058701643022
:1005B000A1001B2087100C309D0006160619E52AA5
:1005C000F03097059D0587018601153003178D00D2
:1005D00000308F00031009300313A100CA2920083E
:1005E000A1001B30A200352A3230A1001B20A52A11
:0205F0006300A6
:02400E00323F3F
:00000001FF
;PIC16F877A
;CRC=1459  CREATED="11-Haz-19 21:32"
